{
    "contractName": "FiredGuys",
    "abi": [
        {
            "inputs": [],
            "stateMutability": "nonpayable",
            "type": "constructor"
        },
        {
            "anonymous": false,
            "inputs": [
                {
                    "indexed": true,
                    "internalType": "address",
                    "name": "owner",
                    "type": "address"
                },
                {
                    "indexed": true,
                    "internalType": "address",
                    "name": "approved",
                    "type": "address"
                },
                {
                    "indexed": true,
                    "internalType": "uint256",
                    "name": "tokenId",
                    "type": "uint256"
                }
            ],
            "name": "Approval",
            "type": "event"
        },
        {
            "anonymous": false,
            "inputs": [
                {
                    "indexed": true,
                    "internalType": "address",
                    "name": "owner",
                    "type": "address"
                },
                {
                    "indexed": true,
                    "internalType": "address",
                    "name": "operator",
                    "type": "address"
                },
                {
                    "indexed": false,
                    "internalType": "bool",
                    "name": "approved",
                    "type": "bool"
                }
            ],
            "name": "ApprovalForAll",
            "type": "event"
        },
        {
            "anonymous": false,
            "inputs": [
                {
                    "indexed": true,
                    "internalType": "address",
                    "name": "previousOwner",
                    "type": "address"
                },
                {
                    "indexed": true,
                    "internalType": "address",
                    "name": "newOwner",
                    "type": "address"
                }
            ],
            "name": "OwnershipTransferred",
            "type": "event"
        },
        {
            "anonymous": false,
            "inputs": [
                {
                    "indexed": true,
                    "internalType": "address",
                    "name": "from",
                    "type": "address"
                },
                {
                    "indexed": true,
                    "internalType": "address",
                    "name": "to",
                    "type": "address"
                },
                {
                    "indexed": true,
                    "internalType": "uint256",
                    "name": "tokenId",
                    "type": "uint256"
                }
            ],
            "name": "Transfer",
            "type": "event"
        },
        {
            "inputs": [
                {
                    "internalType": "address",
                    "name": "to",
                    "type": "address"
                },
                {
                    "internalType": "uint256",
                    "name": "tokenId",
                    "type": "uint256"
                }
            ],
            "name": "approve",
            "outputs": [],
            "stateMutability": "nonpayable",
            "type": "function"
        },
        {
            "inputs": [
                {
                    "internalType": "address",
                    "name": "owner",
                    "type": "address"
                }
            ],
            "name": "balanceOf",
            "outputs": [
                {
                    "internalType": "uint256",
                    "name": "",
                    "type": "uint256"
                }
            ],
            "stateMutability": "view",
            "type": "function"
        },
        {
            "inputs": [],
            "name": "count",
            "outputs": [
                {
                    "internalType": "uint256",
                    "name": "",
                    "type": "uint256"
                }
            ],
            "stateMutability": "view",
            "type": "function"
        },
        {
            "inputs": [
                {
                    "internalType": "uint256",
                    "name": "tokenId",
                    "type": "uint256"
                }
            ],
            "name": "getApproved",
            "outputs": [
                {
                    "internalType": "address",
                    "name": "",
                    "type": "address"
                }
            ],
            "stateMutability": "view",
            "type": "function"
        },
        {
            "inputs": [
                {
                    "internalType": "address",
                    "name": "owner",
                    "type": "address"
                },
                {
                    "internalType": "address",
                    "name": "operator",
                    "type": "address"
                }
            ],
            "name": "isApprovedForAll",
            "outputs": [
                {
                    "internalType": "bool",
                    "name": "",
                    "type": "bool"
                }
            ],
            "stateMutability": "view",
            "type": "function"
        },
        {
            "inputs": [
                {
                    "internalType": "string",
                    "name": "uri",
                    "type": "string"
                }
            ],
            "name": "isContentOwned",
            "outputs": [
                {
                    "internalType": "bool",
                    "name": "",
                    "type": "bool"
                }
            ],
            "stateMutability": "view",
            "type": "function"
        },
        {
            "inputs": [],
            "name": "name",
            "outputs": [
                {
                    "internalType": "string",
                    "name": "",
                    "type": "string"
                }
            ],
            "stateMutability": "view",
            "type": "function"
        },
        {
            "inputs": [],
            "name": "owner",
            "outputs": [
                {
                    "internalType": "address",
                    "name": "",
                    "type": "address"
                }
            ],
            "stateMutability": "view",
            "type": "function"
        },
        {
            "inputs": [
                {
                    "internalType": "uint256",
                    "name": "tokenId",
                    "type": "uint256"
                }
            ],
            "name": "ownerOf",
            "outputs": [
                {
                    "internalType": "address",
                    "name": "",
                    "type": "address"
                }
            ],
            "stateMutability": "view",
            "type": "function"
        },
        {
            "inputs": [
                {
                    "internalType": "address",
                    "name": "recipient",
                    "type": "address"
                },
                {
                    "internalType": "string",
                    "name": "metadataURI",
                    "type": "string"
                }
            ],
            "name": "payToMint",
            "outputs": [
                {
                    "internalType": "uint256",
                    "name": "",
                    "type": "uint256"
                }
            ],
            "stateMutability": "payable",
            "type": "function"
        },
        {
            "inputs": [],
            "name": "renounceOwnership",
            "outputs": [],
            "stateMutability": "nonpayable",
            "type": "function"
        },
        {
            "inputs": [
                {
                    "internalType": "address",
                    "name": "to",
                    "type": "address"
                },
                {
                    "internalType": "string",
                    "name": "uri",
                    "type": "string"
                }
            ],
            "name": "safeMint",
            "outputs": [],
            "stateMutability": "nonpayable",
            "type": "function"
        },
        {
            "inputs": [
                {
                    "internalType": "address",
                    "name": "from",
                    "type": "address"
                },
                {
                    "internalType": "address",
                    "name": "to",
                    "type": "address"
                },
                {
                    "internalType": "uint256",
                    "name": "tokenId",
                    "type": "uint256"
                }
            ],
            "name": "safeTransferFrom",
            "outputs": [],
            "stateMutability": "nonpayable",
            "type": "function"
        },
        {
            "inputs": [
                {
                    "internalType": "address",
                    "name": "from",
                    "type": "address"
                },
                {
                    "internalType": "address",
                    "name": "to",
                    "type": "address"
                },
                {
                    "internalType": "uint256",
                    "name": "tokenId",
                    "type": "uint256"
                },
                {
                    "internalType": "bytes",
                    "name": "_data",
                    "type": "bytes"
                }
            ],
            "name": "safeTransferFrom",
            "outputs": [],
            "stateMutability": "nonpayable",
            "type": "function"
        },
        {
            "inputs": [
                {
                    "internalType": "address",
                    "name": "operator",
                    "type": "address"
                },
                {
                    "internalType": "bool",
                    "name": "approved",
                    "type": "bool"
                }
            ],
            "name": "setApprovalForAll",
            "outputs": [],
            "stateMutability": "nonpayable",
            "type": "function"
        },
        {
            "inputs": [
                {
                    "internalType": "bytes4",
                    "name": "interfaceId",
                    "type": "bytes4"
                }
            ],
            "name": "supportsInterface",
            "outputs": [
                {
                    "internalType": "bool",
                    "name": "",
                    "type": "bool"
                }
            ],
            "stateMutability": "view",
            "type": "function"
        },
        {
            "inputs": [],
            "name": "symbol",
            "outputs": [
                {
                    "internalType": "string",
                    "name": "",
                    "type": "string"
                }
            ],
            "stateMutability": "view",
            "type": "function"
        },
        {
            "inputs": [
                {
                    "internalType": "uint256",
                    "name": "tokenId",
                    "type": "uint256"
                }
            ],
            "name": "tokenURI",
            "outputs": [
                {
                    "internalType": "string",
                    "name": "",
                    "type": "string"
                }
            ],
            "stateMutability": "view",
            "type": "function"
        },
        {
            "inputs": [
                {
                    "internalType": "address",
                    "name": "from",
                    "type": "address"
                },
                {
                    "internalType": "address",
                    "name": "to",
                    "type": "address"
                },
                {
                    "internalType": "uint256",
                    "name": "tokenId",
                    "type": "uint256"
                }
            ],
            "name": "transferFrom",
            "outputs": [],
            "stateMutability": "nonpayable",
            "type": "function"
        },
        {
            "inputs": [
                {
                    "internalType": "address",
                    "name": "newOwner",
                    "type": "address"
                }
            ],
            "name": "transferOwnership",
            "outputs": [],
            "stateMutability": "nonpayable",
            "type": "function"
        }
    ],
    "bytecode": "60806040523480156200001157600080fd5b50604080518082018252600981526846697265644775797360b81b602080830191825283518085019094526003845262232ca960e91b9084015281519192916200005e91600091620000ed565b50805162000074906001906020840190620000ed565b505050620000916200008b6200009760201b60201c565b6200009b565b620001cf565b3390565b600780546001600160a01b038381166001600160a01b0319831681179093556040519116919082907f8be0079c531659141344cd1fd0a4f28419497f9722a3daafe3b4186f6b6457e090600090a35050565b828054620000fb9062000193565b90600052602060002090601f0160209004810192826200011f57600085556200016a565b82601f106200013a57805160ff19168380011785556200016a565b828001600101855582156200016a579182015b828111156200016a5782518255916020019190600101906200014d565b50620001789291506200017c565b5090565b5b808211156200017857600081556001016200017d565b600181811c90821680620001a857607f821691505b602082108103620001c957634e487b7160e01b600052602260045260246000fd5b50919050565b611c4a80620001df6000396000f3fe60806040526004361061011f5760003560e01c8063715018a6116100a0578063b88d4fde11610064578063b88d4fde14610313578063c87b56dd14610333578063d204c45e14610353578063e985e9c514610373578063f2fde38b146103bc57600080fd5b8063715018a61461028b5780638da5cb5b146102a057806395d89b41146102be5780639f1cabc6146102d3578063a22cb465146102f357600080fd5b806323b872dd116100e757806323b872dd146101f857806342842e0e14610218578063615fd9e2146102385780636352211e1461024b57806370a082311461026b57600080fd5b806301ffc9a71461012457806306661abd1461015957806306fdde031461017c578063081812fc1461019e578063095ea7b3146101d6575b600080fd5b34801561013057600080fd5b5061014461013f366004611653565b6103dc565b60405190151581526020015b60405180910390f35b34801561016557600080fd5b5061016e61042e565b604051908152602001610150565b34801561018857600080fd5b5061019161043e565b60405161015091906116c8565b3480156101aa57600080fd5b506101be6101b93660046116db565b6104d0565b6040516001600160a01b039091168152602001610150565b3480156101e257600080fd5b506101f66101f1366004611710565b61055d565b005b34801561020457600080fd5b506101f661021336600461173a565b610672565b34801561022457600080fd5b506101f661023336600461173a565b6106a3565b61016e610246366004611822565b6106be565b34801561025757600080fd5b506101be6102663660046116db565b6107db565b34801561027757600080fd5b5061016e610286366004611870565b610852565b34801561029757600080fd5b506101f66108d9565b3480156102ac57600080fd5b506007546001600160a01b03166101be565b3480156102ca57600080fd5b5061019161090f565b3480156102df57600080fd5b506101446102ee36600461188b565b61091e565b3480156102ff57600080fd5b506101f661030e3660046118c0565b61094c565b34801561031f57600080fd5b506101f661032e3660046118fc565b61095b565b34801561033f57600080fd5b5061019161034e3660046116db565b610993565b34801561035f57600080fd5b506101f661036e366004611822565b61099e565b34801561037f57600080fd5b5061014461038e366004611978565b6001600160a01b03918216600090815260056020908152604080832093909416825291909152205460ff1690565b3480156103c857600080fd5b506101f66103d7366004611870565b610a31565b60006001600160e01b031982166380ac58cd60e01b148061040d57506001600160e01b03198216635b5e139f60e01b145b8061042857506301ffc9a760e01b6001600160e01b03198316145b92915050565b600061043960085490565b905090565b60606000805461044d906119ab565b80601f0160208091040260200160405190810160405280929190818152602001828054610479906119ab565b80156104c65780601f1061049b576101008083540402835291602001916104c6565b820191906000526020600020905b8154815290600101906020018083116104a957829003601f168201915b5050505050905090565b60006104db82610acc565b6105415760405162461bcd60e51b815260206004820152602c60248201527f4552433732313a20617070726f76656420717565727920666f72206e6f6e657860448201526b34b9ba32b73a103a37b5b2b760a11b60648201526084015b60405180910390fd5b506000908152600460205260409020546001600160a01b031690565b6000610568826107db565b9050806001600160a01b0316836001600160a01b0316036105d55760405162461bcd60e51b815260206004820152602160248201527f4552433732313a20617070726f76616c20746f2063757272656e74206f776e656044820152603960f91b6064820152608401610538565b336001600160a01b03821614806105f157506105f1813361038e565b6106635760405162461bcd60e51b815260206004820152603860248201527f4552433732313a20617070726f76652063616c6c6572206973206e6f74206f7760448201527f6e6572206e6f7220617070726f76656420666f7220616c6c00000000000000006064820152608401610538565b61066d8383610ae9565b505050565b61067c3382610b57565b6106985760405162461bcd60e51b8152600401610538906119e5565b61066d838383610c41565b61066d8383836040518060200160405280600081525061095b565b60006009826040516106d09190611a36565b9081526040519081900360200190205460ff166001036107285760405162461bcd60e51b81526020600482015260136024820152724e465420616c7265616479206d696e7465642160681b6044820152606401610538565b652d79883d20003410156107705760405162461bcd60e51b815260206004820152600f60248201526e4e65656420746f207061792075702160881b6044820152606401610538565b600061077b60085490565b905061078b600880546001019055565b600160098460405161079d9190611a36565b908152604051908190036020019020805460ff9290921660ff199092169190911790556107ca8482610de1565b6107d48184610f14565b9392505050565b6000818152600260205260408120546001600160a01b0316806104285760405162461bcd60e51b815260206004820152602960248201527f4552433732313a206f776e657220717565727920666f72206e6f6e657869737460448201526832b73a103a37b5b2b760b91b6064820152608401610538565b60006001600160a01b0382166108bd5760405162461bcd60e51b815260206004820152602a60248201527f4552433732313a2062616c616e636520717565727920666f7220746865207a65604482015269726f206164647265737360b01b6064820152608401610538565b506001600160a01b031660009081526003602052604090205490565b6007546001600160a01b031633146109035760405162461bcd60e51b815260040161053890611a52565b61090d6000610f9f565b565b60606001805461044d906119ab565b60006009826040516109309190611a36565b9081526040519081900360200190205460ff1660011492915050565b610957338383610ff1565b5050565b6109653383610b57565b6109815760405162461bcd60e51b8152600401610538906119e5565b61098d848484846110bf565b50505050565b6060610428826110f2565b6007546001600160a01b031633146109c85760405162461bcd60e51b815260040161053890611a52565b60006109d360085490565b90506109e3600880546001019055565b6109ed838261126f565b6109f78183610f14565b6001600983604051610a099190611a36565b908152604051908190036020019020805460ff9290921660ff19909216919091179055505050565b6007546001600160a01b03163314610a5b5760405162461bcd60e51b815260040161053890611a52565b6001600160a01b038116610ac05760405162461bcd60e51b815260206004820152602660248201527f4f776e61626c653a206e6577206f776e657220697320746865207a65726f206160448201526564647265737360d01b6064820152608401610538565b610ac981610f9f565b50565b6000908152600260205260409020546001600160a01b0316151590565b600081815260046020526040902080546001600160a01b0319166001600160a01b0384169081179091558190610b1e826107db565b6001600160a01b03167f8c5be1e5ebec7d5bd14f71427d1e84f3dd0314c0f7b2291e5b200ac8c7c3b92560405160405180910390a45050565b6000610b6282610acc565b610bc35760405162461bcd60e51b815260206004820152602c60248201527f4552433732313a206f70657261746f7220717565727920666f72206e6f6e657860448201526b34b9ba32b73a103a37b5b2b760a11b6064820152608401610538565b6000610bce836107db565b9050806001600160a01b0316846001600160a01b03161480610c095750836001600160a01b0316610bfe846104d0565b6001600160a01b0316145b80610c3957506001600160a01b0380821660009081526005602090815260408083209388168352929052205460ff165b949350505050565b826001600160a01b0316610c54826107db565b6001600160a01b031614610cbc5760405162461bcd60e51b815260206004820152602960248201527f4552433732313a207472616e73666572206f6620746f6b656e2074686174206960448201526839903737ba1037bbb760b91b6064820152608401610538565b6001600160a01b038216610d1e5760405162461bcd60e51b8152602060048201526024808201527f4552433732313a207472616e7366657220746f20746865207a65726f206164646044820152637265737360e01b6064820152608401610538565b610d29600082610ae9565b6001600160a01b0383166000908152600360205260408120805460019290610d52908490611a9d565b90915550506001600160a01b0382166000908152600360205260408120805460019290610d80908490611ab4565b909155505060008181526002602052604080822080546001600160a01b0319166001600160a01b0386811691821790925591518493918716917fddf252ad1be2c89b69c2b068fc378daa952ba7f163c4a11628f55a4df523b3ef91a4505050565b6001600160a01b038216610e375760405162461bcd60e51b815260206004820181905260248201527f4552433732313a206d696e7420746f20746865207a65726f20616464726573736044820152606401610538565b610e4081610acc565b15610e8d5760405162461bcd60e51b815260206004820152601c60248201527f4552433732313a20746f6b656e20616c7265616479206d696e746564000000006044820152606401610538565b6001600160a01b0382166000908152600360205260408120805460019290610eb6908490611ab4565b909155505060008181526002602052604080822080546001600160a01b0319166001600160a01b03861690811790915590518392907fddf252ad1be2c89b69c2b068fc378daa952ba7f163c4a11628f55a4df523b3ef908290a45050565b610f1d82610acc565b610f805760405162461bcd60e51b815260206004820152602e60248201527f45524337323155524953746f726167653a2055524920736574206f66206e6f6e60448201526d32bc34b9ba32b73a103a37b5b2b760911b6064820152608401610538565b6000828152600660209081526040909120825161066d928401906115a4565b600780546001600160a01b038381166001600160a01b0319831681179093556040519116919082907f8be0079c531659141344cd1fd0a4f28419497f9722a3daafe3b4186f6b6457e090600090a35050565b816001600160a01b0316836001600160a01b0316036110525760405162461bcd60e51b815260206004820152601960248201527f4552433732313a20617070726f766520746f2063616c6c6572000000000000006044820152606401610538565b6001600160a01b03838116600081815260056020908152604080832094871680845294825291829020805460ff191686151590811790915591519182527f17307eab39ab6107e8899845ad3d59bd9653f200f220920489ca2b5937696c31910160405180910390a3505050565b6110ca848484610c41565b6110d684848484611289565b61098d5760405162461bcd60e51b815260040161053890611acc565b60606110fd82610acc565b6111635760405162461bcd60e51b815260206004820152603160248201527f45524337323155524953746f726167653a2055524920717565727920666f72206044820152703737b732bc34b9ba32b73a103a37b5b2b760791b6064820152608401610538565b6000828152600660205260408120805461117c906119ab565b80601f01602080910402602001604051908101604052809291908181526020018280546111a8906119ab565b80156111f55780601f106111ca576101008083540402835291602001916111f5565b820191906000526020600020905b8154815290600101906020018083116111d857829003601f168201915b505050505090506000611222604080518082019091526007815266697066733a2f2f60c81b602082015290565b90508051600003611234575092915050565b81511561126657808260405160200161124e929190611b1e565b60405160208183030381529060405292505050919050565b610c398461138a565b610957828260405180602001604052806000815250611470565b60006001600160a01b0384163b1561137f57604051630a85bd0160e11b81526001600160a01b0385169063150b7a02906112cd903390899088908890600401611b4d565b6020604051808303816000875af1925050508015611308575060408051601f3d908101601f1916820190925261130591810190611b8a565b60015b611365573d808015611336576040519150601f19603f3d011682016040523d82523d6000602084013e61133b565b606091505b50805160000361135d5760405162461bcd60e51b815260040161053890611acc565b805181602001fd5b6001600160e01b031916630a85bd0160e11b149050610c39565b506001949350505050565b606061139582610acc565b6113f95760405162461bcd60e51b815260206004820152602f60248201527f4552433732314d657461646174613a2055524920717565727920666f72206e6f60448201526e3732bc34b9ba32b73a103a37b5b2b760891b6064820152608401610538565b600061141f604080518082019091526007815266697066733a2f2f60c81b602082015290565b9050600081511161143f57604051806020016040528060008152506107d4565b80611449846114a3565b60405160200161145a929190611b1e565b6040516020818303038152906040529392505050565b61147a8383610de1565b6114876000848484611289565b61066d5760405162461bcd60e51b815260040161053890611acc565b6060816000036114ca5750506040805180820190915260018152600360fc1b602082015290565b8160005b81156114f457806114de81611ba7565b91506114ed9050600a83611bd6565b91506114ce565b60008167ffffffffffffffff81111561150f5761150f611776565b6040519080825280601f01601f191660200182016040528015611539576020820181803683370190505b5090505b8415610c395761154e600183611a9d565b915061155b600a86611bea565b611566906030611ab4565b60f81b81838151811061157b5761157b611bfe565b60200101906001600160f81b031916908160001a90535061159d600a86611bd6565b945061153d565b8280546115b0906119ab565b90600052602060002090601f0160209004810192826115d25760008555611618565b82601f106115eb57805160ff1916838001178555611618565b82800160010185558215611618579182015b828111156116185782518255916020019190600101906115fd565b50611624929150611628565b5090565b5b808211156116245760008155600101611629565b6001600160e01b031981168114610ac957600080fd5b60006020828403121561166557600080fd5b81356107d48161163d565b60005b8381101561168b578181015183820152602001611673565b8381111561098d5750506000910152565b600081518084526116b4816020860160208601611670565b601f01601f19169290920160200192915050565b6020815260006107d4602083018461169c565b6000602082840312156116ed57600080fd5b5035919050565b80356001600160a01b038116811461170b57600080fd5b919050565b6000806040838503121561172357600080fd5b61172c836116f4565b946020939093013593505050565b60008060006060848603121561174f57600080fd5b611758846116f4565b9250611766602085016116f4565b9150604084013590509250925092565b634e487b7160e01b600052604160045260246000fd5b600067ffffffffffffffff808411156117a7576117a7611776565b604051601f8501601f19908116603f011681019082821181831017156117cf576117cf611776565b816040528093508581528686860111156117e857600080fd5b858560208301376000602087830101525050509392505050565b600082601f83011261181357600080fd5b6107d48383356020850161178c565b6000806040838503121561183557600080fd5b61183e836116f4565b9150602083013567ffffffffffffffff81111561185a57600080fd5b61186685828601611802565b9150509250929050565b60006020828403121561188257600080fd5b6107d4826116f4565b60006020828403121561189d57600080fd5b813567ffffffffffffffff8111156118b457600080fd5b610c3984828501611802565b600080604083850312156118d357600080fd5b6118dc836116f4565b9150602083013580151581146118f157600080fd5b809150509250929050565b6000806000806080858703121561191257600080fd5b61191b856116f4565b9350611929602086016116f4565b925060408501359150606085013567ffffffffffffffff81111561194c57600080fd5b8501601f8101871361195d57600080fd5b61196c8782356020840161178c565b91505092959194509250565b6000806040838503121561198b57600080fd5b611994836116f4565b91506119a2602084016116f4565b90509250929050565b600181811c908216806119bf57607f821691505b6020821081036119df57634e487b7160e01b600052602260045260246000fd5b50919050565b60208082526031908201527f4552433732313a207472616e736665722063616c6c6572206973206e6f74206f6040820152701ddb995c881b9bdc88185c1c1c9bdd9959607a1b606082015260800190565b60008251611a48818460208701611670565b9190910192915050565b6020808252818101527f4f776e61626c653a2063616c6c6572206973206e6f7420746865206f776e6572604082015260600190565b634e487b7160e01b600052601160045260246000fd5b600082821015611aaf57611aaf611a87565b500390565b60008219821115611ac757611ac7611a87565b500190565b60208082526032908201527f4552433732313a207472616e7366657220746f206e6f6e20455243373231526560408201527131b2b4bb32b91034b6b83632b6b2b73a32b960711b606082015260800190565b60008351611b30818460208801611670565b835190830190611b44818360208801611670565b01949350505050565b6001600160a01b0385811682528416602082015260408101839052608060608201819052600090611b809083018461169c565b9695505050505050565b600060208284031215611b9c57600080fd5b81516107d48161163d565b600060018201611bb957611bb9611a87565b5060010190565b634e487b7160e01b600052601260045260246000fd5b600082611be557611be5611bc0565b500490565b600082611bf957611bf9611bc0565b500690565b634e487b7160e01b600052603260045260246000fdfea2646970667358221220085de6a171e9a9a956ad4a778371738ba947b18d7f65a770f6dfa95eeb85b5c564736f6c634300080d0033",
    "sourcePath": "c:/Users/eric2/Documents/MyCode/web3-nft-dapp-tutorial/contracts/MyNFT.sol",
    "compiler": {
        "name": "solc",
        "version": "0.8.13+commit.abaa5c0e"
    },
    "functionHashes": {
        "approve(address,uint256)": "095ea7b3",
        "balanceOf(address)": "70a08231",
        "count()": "06661abd",
        "getApproved(uint256)": "081812fc",
        "isApprovedForAll(address,address)": "e985e9c5",
        "isContentOwned(string)": "9f1cabc6",
        "name()": "06fdde03",
        "owner()": "8da5cb5b",
        "ownerOf(uint256)": "6352211e",
        "payToMint(address,string)": "615fd9e2",
        "renounceOwnership()": "715018a6",
        "safeMint(address,string)": "d204c45e",
        "safeTransferFrom(address,address,uint256)": "42842e0e",
        "safeTransferFrom(address,address,uint256,bytes)": "b88d4fde",
        "setApprovalForAll(address,bool)": "a22cb465",
        "supportsInterface(bytes4)": "01ffc9a7",
        "symbol()": "95d89b41",
        "tokenURI(uint256)": "c87b56dd",
        "transferFrom(address,address,uint256)": "23b872dd",
        "transferOwnership(address)": "f2fde38b"
    },
    "gasEstimates": {
        "creation": {
            "codeDepositCost": "1448400",
            "executionCost": "infinite",
            "totalCost": "infinite"
        },
        "external": {
            "approve(address,uint256)": "infinite",
            "balanceOf(address)": "2700",
            "count()": "2376",
            "getApproved(uint256)": "4821",
            "isApprovedForAll(address,address)": "infinite",
            "isContentOwned(string)": "infinite",
            "name()": "infinite",
            "owner()": "2376",
            "ownerOf(uint256)": "2645",
            "payToMint(address,string)": "infinite",
            "renounceOwnership()": "28140",
            "safeMint(address,string)": "infinite",
            "safeTransferFrom(address,address,uint256)": "infinite",
            "safeTransferFrom(address,address,uint256,bytes)": "infinite",
            "setApprovalForAll(address,bool)": "26794",
            "supportsInterface(bytes4)": "534",
            "symbol()": "infinite",
            "tokenURI(uint256)": "infinite",
            "transferFrom(address,address,uint256)": "infinite",
            "transferOwnership(address)": "28422"
        },
        "internal": {
            "_baseURI()": "infinite",
            "_burn(uint256)": "infinite"
        }
    }
}